{
  "_format": "hh-sol-artifact-1",
  "contractName": "CommunityHub",
  "sourceName": "src/CommunityHub.sol",
  "abi": [
    {
      "inputs": [],
      "stateMutability": "nonpayable",
      "type": "constructor"
    },
    {
      "inputs": [
        {
          "internalType": "address",
          "name": "owner",
          "type": "address"
        }
      ],
      "name": "OwnableInvalidOwner",
      "type": "error"
    },
    {
      "inputs": [
        {
          "internalType": "address",
          "name": "account",
          "type": "address"
        }
      ],
      "name": "OwnableUnauthorizedAccount",
      "type": "error"
    },
    {
      "anonymous": false,
      "inputs": [
        {
          "indexed": true,
          "internalType": "address",
          "name": "previousOwner",
          "type": "address"
        },
        {
          "indexed": true,
          "internalType": "address",
          "name": "newOwner",
          "type": "address"
        }
      ],
      "name": "OwnershipTransferred",
      "type": "event"
    },
    {
      "inputs": [
        {
          "internalType": "uint256",
          "name": "communityId",
          "type": "uint256"
        },
        {
          "components": [
            {
              "internalType": "enum ICommunityHub.CensusType",
              "name": "censusType",
              "type": "uint8"
            },
            {
              "components": [
                {
                  "internalType": "string",
                  "name": "blockchain",
                  "type": "string"
                },
                {
                  "internalType": "address",
                  "name": "contractAddress",
                  "type": "address"
                }
              ],
              "internalType": "struct ICommunityHub.Token[]",
              "name": "tokens",
              "type": "tuple[]"
            }
          ],
          "internalType": "struct ICommunityHub.Census",
          "name": "census",
          "type": "tuple"
        }
      ],
      "name": "AddCensus",
      "outputs": [],
      "stateMutability": "nonpayable",
      "type": "function"
    },
    {
      "inputs": [
        {
          "internalType": "uint256",
          "name": "communityId",
          "type": "uint256"
        },
        {
          "internalType": "address",
          "name": "guardian",
          "type": "address"
        }
      ],
      "name": "AddGuardian",
      "outputs": [],
      "stateMutability": "nonpayable",
      "type": "function"
    },
    {
      "inputs": [
        {
          "internalType": "uint256",
          "name": "communityId",
          "type": "uint256"
        },
        {
          "components": [
            {
              "internalType": "string",
              "name": "name",
              "type": "string"
            },
            {
              "internalType": "string",
              "name": "imageURI",
              "type": "string"
            },
            {
              "internalType": "string[]",
              "name": "channels",
              "type": "string[]"
            },
            {
              "internalType": "bool",
              "name": "notifications",
              "type": "bool"
            }
          ],
          "internalType": "struct ICommunityHub.CommunityMetadata",
          "name": "metadata",
          "type": "tuple"
        },
        {
          "components": [
            {
              "internalType": "enum ICommunityHub.CensusType",
              "name": "censusType",
              "type": "uint8"
            },
            {
              "components": [
                {
                  "internalType": "string",
                  "name": "blockchain",
                  "type": "string"
                },
                {
                  "internalType": "address",
                  "name": "contractAddress",
                  "type": "address"
                }
              ],
              "internalType": "struct ICommunityHub.Token[]",
              "name": "tokens",
              "type": "tuple[]"
            }
          ],
          "internalType": "struct ICommunityHub.Census",
          "name": "census",
          "type": "tuple"
        },
        {
          "internalType": "uint256[]",
          "name": "guardians",
          "type": "uint256[]"
        },
        {
          "internalType": "address",
          "name": "electionResultsContract",
          "type": "address"
        },
        {
          "internalType": "enum ICommunityHub.CreateElectionPermission",
          "name": "createElectionPermission",
          "type": "uint8"
        }
      ],
      "name": "AdminManageCommunity",
      "outputs": [],
      "stateMutability": "nonpayable",
      "type": "function"
    },
    {
      "inputs": [
        {
          "components": [
            {
              "internalType": "string",
              "name": "name",
              "type": "string"
            },
            {
              "internalType": "string",
              "name": "imageURI",
              "type": "string"
            },
            {
              "internalType": "string[]",
              "name": "channels",
              "type": "string[]"
            },
            {
              "internalType": "bool",
              "name": "notifications",
              "type": "bool"
            }
          ],
          "internalType": "struct ICommunityHub.CommunityMetadata",
          "name": "metadata",
          "type": "tuple"
        },
        {
          "components": [
            {
              "internalType": "enum ICommunityHub.CensusType",
              "name": "censusType",
              "type": "uint8"
            },
            {
              "components": [
                {
                  "internalType": "string",
                  "name": "blockchain",
                  "type": "string"
                },
                {
                  "internalType": "address",
                  "name": "contractAddress",
                  "type": "address"
                }
              ],
              "internalType": "struct ICommunityHub.Token[]",
              "name": "tokens",
              "type": "tuple[]"
            }
          ],
          "internalType": "struct ICommunityHub.Census",
          "name": "census",
          "type": "tuple"
        },
        {
          "internalType": "uint256[]",
          "name": "guardians",
          "type": "uint256[]"
        },
        {
          "internalType": "address",
          "name": "electionResultsContract",
          "type": "address"
        },
        {
          "internalType": "enum ICommunityHub.CreateElectionPermission",
          "name": "createElectionPermission",
          "type": "uint8"
        }
      ],
      "name": "CreateCommunity",
      "outputs": [
        {
          "internalType": "uint256",
          "name": "",
          "type": "uint256"
        }
      ],
      "stateMutability": "nonpayable",
      "type": "function"
    },
    {
      "inputs": [
        {
          "internalType": "uint256",
          "name": "communityId",
          "type": "uint256"
        }
      ],
      "name": "DeleteCommunity",
      "outputs": [],
      "stateMutability": "nonpayable",
      "type": "function"
    },
    {
      "inputs": [
        {
          "internalType": "uint256",
          "name": "communityId",
          "type": "uint256"
        },
        {
          "internalType": "string",
          "name": "electionId",
          "type": "string"
        }
      ],
      "name": "GetElectionResults",
      "outputs": [
        {
          "internalType": "string",
          "name": "question",
          "type": "string"
        },
        {
          "internalType": "string[]",
          "name": "options",
          "type": "string[]"
        },
        {
          "internalType": "string",
          "name": "date",
          "type": "string"
        },
        {
          "internalType": "uint256[][]",
          "name": "tally",
          "type": "uint256[][]"
        },
        {
          "internalType": "uint256",
          "name": "turnout",
          "type": "uint256"
        },
        {
          "internalType": "string[]",
          "name": "participants",
          "type": "string[]"
        },
        {
          "internalType": "bytes",
          "name": "action",
          "type": "bytes"
        },
        {
          "internalType": "bytes32",
          "name": "censusRoot",
          "type": "bytes32"
        },
        {
          "internalType": "string",
          "name": "censusURI",
          "type": "string"
        }
      ],
      "stateMutability": "view",
      "type": "function"
    },
    {
      "inputs": [
        {
          "internalType": "uint256",
          "name": "communityId",
          "type": "uint256"
        }
      ],
      "name": "RemoveCensus",
      "outputs": [],
      "stateMutability": "nonpayable",
      "type": "function"
    },
    {
      "inputs": [
        {
          "internalType": "uint256",
          "name": "communityId",
          "type": "uint256"
        },
        {
          "internalType": "address",
          "name": "guardian",
          "type": "address"
        }
      ],
      "name": "RemoveGuardian",
      "outputs": [],
      "stateMutability": "nonpayable",
      "type": "function"
    },
    {
      "inputs": [
        {
          "internalType": "uint256",
          "name": "communityId",
          "type": "uint256"
        },
        {
          "internalType": "enum ICommunityHub.CreateElectionPermission",
          "name": "createElectionPermission",
          "type": "uint8"
        }
      ],
      "name": "SetCreateElectionPermission",
      "outputs": [],
      "stateMutability": "nonpayable",
      "type": "function"
    },
    {
      "inputs": [
        {
          "internalType": "uint256",
          "name": "communityId",
          "type": "uint256"
        },
        {
          "internalType": "bytes32",
          "name": "electionId",
          "type": "bytes32"
        },
        {
          "internalType": "string",
          "name": "question",
          "type": "string"
        },
        {
          "internalType": "string[]",
          "name": "options",
          "type": "string[]"
        },
        {
          "internalType": "string",
          "name": "date",
          "type": "string"
        },
        {
          "internalType": "uint256[][]",
          "name": "tally",
          "type": "uint256[][]"
        },
        {
          "internalType": "uint256",
          "name": "turnout",
          "type": "uint256"
        },
        {
          "internalType": "string[]",
          "name": "participants",
          "type": "string[]"
        },
        {
          "internalType": "bytes",
          "name": "action",
          "type": "bytes"
        },
        {
          "internalType": "bytes32",
          "name": "censusRoot",
          "type": "bytes32"
        },
        {
          "internalType": "string",
          "name": "censusURI",
          "type": "string"
        }
      ],
      "name": "SetElectionResults",
      "outputs": [],
      "stateMutability": "nonpayable",
      "type": "function"
    },
    {
      "inputs": [
        {
          "internalType": "uint256",
          "name": "communityId",
          "type": "uint256"
        },
        {
          "internalType": "address",
          "name": "electionResultsContract",
          "type": "address"
        }
      ],
      "name": "SetElectionResultsContract",
      "outputs": [],
      "stateMutability": "nonpayable",
      "type": "function"
    },
    {
      "inputs": [
        {
          "internalType": "uint256",
          "name": "communityId",
          "type": "uint256"
        },
        {
          "components": [
            {
              "internalType": "string",
              "name": "name",
              "type": "string"
            },
            {
              "internalType": "string",
              "name": "imageURI",
              "type": "string"
            },
            {
              "internalType": "string[]",
              "name": "channels",
              "type": "string[]"
            },
            {
              "internalType": "bool",
              "name": "notifications",
              "type": "bool"
            }
          ],
          "internalType": "struct ICommunityHub.CommunityMetadata",
          "name": "metadata",
          "type": "tuple"
        }
      ],
      "name": "SetMetadata",
      "outputs": [],
      "stateMutability": "nonpayable",
      "type": "function"
    },
    {
      "inputs": [
        {
          "internalType": "uint256",
          "name": "communityId",
          "type": "uint256"
        },
        {
          "internalType": "bool",
          "name": "notifiableElections",
          "type": "bool"
        }
      ],
      "name": "SetNotifiableElections",
      "outputs": [],
      "stateMutability": "nonpayable",
      "type": "function"
    },
    {
      "inputs": [],
      "name": "owner",
      "outputs": [
        {
          "internalType": "address",
          "name": "",
          "type": "address"
        }
      ],
      "stateMutability": "view",
      "type": "function"
    },
    {
      "inputs": [],
      "name": "renounceOwnership",
      "outputs": [],
      "stateMutability": "nonpayable",
      "type": "function"
    },
    {
      "inputs": [
        {
          "internalType": "address",
          "name": "newOwner",
          "type": "address"
        }
      ],
      "name": "transferOwnership",
      "outputs": [],
      "stateMutability": "nonpayable",
      "type": "function"
    }
  ],
  "bytecode": "0x60806040523480156200001157600080fd5b5033600073ffffffffffffffffffffffffffffffffffffffff168173ffffffffffffffffffffffffffffffffffffffff1603620000885760006040517f1e4fbdf70000000000000000000000000000000000000000000000000000000081526004016200007f9190620001a9565b60405180910390fd5b6200009981620000a060201b60201c565b50620001c6565b60008060009054906101000a900473ffffffffffffffffffffffffffffffffffffffff169050816000806101000a81548173ffffffffffffffffffffffffffffffffffffffff021916908373ffffffffffffffffffffffffffffffffffffffff1602179055508173ffffffffffffffffffffffffffffffffffffffff168173ffffffffffffffffffffffffffffffffffffffff167f8be0079c531659141344cd1fd0a4f28419497f9722a3daafe3b4186f6b6457e060405160405180910390a35050565b600073ffffffffffffffffffffffffffffffffffffffff82169050919050565b6000620001918262000164565b9050919050565b620001a38162000184565b82525050565b6000602082019050620001c0600083018462000198565b92915050565b61181680620001d66000396000f3fe608060405234801561001057600080fd5b50600436106101005760003560e01c806397ada1eb11610097578063d66917d911610066578063d66917d914610275578063e2539dc914610291578063f177a077146102ad578063f2fde38b146102c957610100565b806397ada1eb146101f1578063b025dd9b1461020d578063cd22ba8414610229578063d2e3ac0d1461025957610100565b80636ebf3c4c116100d35780636ebf3c4c14610175578063715018a614610191578063729e13481461019b5780638da5cb5b146101d357610100565b80632ebf88f81461010557806349dd50be1461012157806351df526e1461013d57806367272a5214610159575b600080fd5b61011f600480360381019061011a91906108ed565b6102e5565b005b61013b600480360381019061013691906109a7565b6102e9565b005b610157600480360381019061015291906109a7565b6102ed565b005b610173600480360381019061016e9190610a0c565b6102f1565b005b61018f600480360381019061018a9190610a4c565b6102f5565b005b6101996102f9565b005b6101b560048036038101906101b09190610a8c565b61030d565b6040516101ca99989796959493929190610e70565b60405180910390f35b6101db610329565b6040516101e89190610f3d565b60405180910390f35b61020b60048036038101906102069190611136565b610352565b005b61022760048036038101906102229190611192565b610356565b005b610243600480360381019061023e9190611282565b610359565b6040516102509190611351565b60405180910390f35b610273600480360381019061026e919061136c565b610364565b005b61028f600480360381019061028a91906109a7565b610374565b005b6102ab60048036038101906102a691906115fb565b610378565b005b6102c760048036038101906102c29190611192565b610385565b005b6102e360048036038101906102de91906117b3565b610390565b005b5050565b5050565b5050565b5050565b5050565b610301610416565b61030b600061049d565b565b6060806060806000606080600060609295985092959850929598565b60008060009054906101000a900473ffffffffffffffffffffffffffffffffffffffff16905090565b5050565b50565b600095945050505050565b61036c610416565b505050505050565b5050565b5050505050505050505050565b61038d610416565b50565b610398610416565b600073ffffffffffffffffffffffffffffffffffffffff168173ffffffffffffffffffffffffffffffffffffffff160361040a5760006040517f1e4fbdf70000000000000000000000000000000000000000000000000000000081526004016104019190610f3d565b60405180910390fd5b6104138161049d565b50565b61041e610561565b73ffffffffffffffffffffffffffffffffffffffff1661043c610329565b73ffffffffffffffffffffffffffffffffffffffff161461049b5761045f610561565b6040517f118cdaa70000000000000000000000000000000000000000000000000000000081526004016104929190610f3d565b60405180910390fd5b565b60008060009054906101000a900473ffffffffffffffffffffffffffffffffffffffff169050816000806101000a81548173ffffffffffffffffffffffffffffffffffffffff021916908373ffffffffffffffffffffffffffffffffffffffff1602179055508173ffffffffffffffffffffffffffffffffffffffff168173ffffffffffffffffffffffffffffffffffffffff167f8be0079c531659141344cd1fd0a4f28419497f9722a3daafe3b4186f6b6457e060405160405180910390a35050565b600033905090565b6000604051905090565b600080fd5b600080fd5b6000819050919050565b6105908161057d565b811461059b57600080fd5b50565b6000813590506105ad81610587565b92915050565b600080fd5b6000601f19601f8301169050919050565b7f4e487b7100000000000000000000000000000000000000000000000000000000600052604160045260246000fd5b610601826105b8565b810181811067ffffffffffffffff821117156106205761061f6105c9565b5b80604052505050565b6000610633610569565b905061063f82826105f8565b919050565b600080fd5b600080fd5b600080fd5b600067ffffffffffffffff82111561066e5761066d6105c9565b5b610677826105b8565b9050602081019050919050565b82818337600083830152505050565b60006106a66106a184610653565b610629565b9050828152602081018484840111156106c2576106c161064e565b5b6106cd848285610684565b509392505050565b600082601f8301126106ea576106e9610649565b5b81356106fa848260208601610693565b91505092915050565b600067ffffffffffffffff82111561071e5761071d6105c9565b5b602082029050602081019050919050565b600080fd5b600061074761074284610703565b610629565b9050808382526020820190506020840283018581111561076a5761076961072f565b5b835b818110156107b157803567ffffffffffffffff81111561078f5761078e610649565b5b80860161079c89826106d5565b8552602085019450505060208101905061076c565b5050509392505050565b600082601f8301126107d0576107cf610649565b5b81356107e0848260208601610734565b91505092915050565b60008115159050919050565b6107fe816107e9565b811461080957600080fd5b50565b60008135905061081b816107f5565b92915050565b600060808284031215610837576108366105b3565b5b6108416080610629565b9050600082013567ffffffffffffffff81111561086157610860610644565b5b61086d848285016106d5565b600083015250602082013567ffffffffffffffff81111561089157610890610644565b5b61089d848285016106d5565b602083015250604082013567ffffffffffffffff8111156108c1576108c0610644565b5b6108cd848285016107bb565b60408301525060606108e18482850161080c565b60608301525092915050565b6000806040838503121561090457610903610573565b5b60006109128582860161059e565b925050602083013567ffffffffffffffff81111561093357610932610578565b5b61093f85828601610821565b9150509250929050565b600073ffffffffffffffffffffffffffffffffffffffff82169050919050565b600061097482610949565b9050919050565b61098481610969565b811461098f57600080fd5b50565b6000813590506109a18161097b565b92915050565b600080604083850312156109be576109bd610573565b5b60006109cc8582860161059e565b92505060206109dd85828601610992565b9150509250929050565b600281106109f457600080fd5b50565b600081359050610a06816109e7565b92915050565b60008060408385031215610a2357610a22610573565b5b6000610a318582860161059e565b9250506020610a42858286016109f7565b9150509250929050565b60008060408385031215610a6357610a62610573565b5b6000610a718582860161059e565b9250506020610a828582860161080c565b9150509250929050565b60008060408385031215610aa357610aa2610573565b5b6000610ab18582860161059e565b925050602083013567ffffffffffffffff811115610ad257610ad1610578565b5b610ade858286016106d5565b9150509250929050565b600081519050919050565b600082825260208201905092915050565b60005b83811015610b22578082015181840152602081019050610b07565b60008484015250505050565b6000610b3982610ae8565b610b438185610af3565b9350610b53818560208601610b04565b610b5c816105b8565b840191505092915050565b600081519050919050565b600082825260208201905092915050565b6000819050602082019050919050565b600082825260208201905092915050565b6000610baf82610ae8565b610bb98185610b93565b9350610bc9818560208601610b04565b610bd2816105b8565b840191505092915050565b6000610be98383610ba4565b905092915050565b6000602082019050919050565b6000610c0982610b67565b610c138185610b72565b935083602082028501610c2585610b83565b8060005b85811015610c615784840389528151610c428582610bdd565b9450610c4d83610bf1565b925060208a01995050600181019050610c29565b50829750879550505050505092915050565b600081519050919050565b600082825260208201905092915050565b6000819050602082019050919050565b600081519050919050565b600082825260208201905092915050565b6000819050602082019050919050565b610cd48161057d565b82525050565b6000610ce68383610ccb565b60208301905092915050565b6000602082019050919050565b6000610d0a82610c9f565b610d148185610caa565b9350610d1f83610cbb565b8060005b83811015610d50578151610d378882610cda565b9750610d4283610cf2565b925050600181019050610d23565b5085935050505092915050565b6000610d698383610cff565b905092915050565b6000602082019050919050565b6000610d8982610c73565b610d938185610c7e565b935083602082028501610da585610c8f565b8060005b85811015610de15784840389528151610dc28582610d5d565b9450610dcd83610d71565b925060208a01995050600181019050610da9565b50829750879550505050505092915050565b610dfc8161057d565b82525050565b600081519050919050565b600082825260208201905092915050565b6000610e2982610e02565b610e338185610e0d565b9350610e43818560208601610b04565b610e4c816105b8565b840191505092915050565b6000819050919050565b610e6a81610e57565b82525050565b6000610120820190508181036000830152610e8b818c610b2e565b90508181036020830152610e9f818b610bfe565b90508181036040830152610eb3818a610b2e565b90508181036060830152610ec78189610d7e565b9050610ed66080830188610df3565b81810360a0830152610ee88187610bfe565b905081810360c0830152610efc8186610e1e565b9050610f0b60e0830185610e61565b818103610100830152610f1e8184610b2e565b90509a9950505050505050505050565b610f3781610969565b82525050565b6000602082019050610f526000830184610f2e565b92915050565b60068110610f6557600080fd5b50565b600081359050610f7781610f58565b92915050565b600067ffffffffffffffff821115610f9857610f976105c9565b5b602082029050602081019050919050565b600060408284031215610fbf57610fbe6105b3565b5b610fc96040610629565b9050600082013567ffffffffffffffff811115610fe957610fe8610644565b5b610ff5848285016106d5565b600083015250602061100984828501610992565b60208301525092915050565b600061102861102384610f7d565b610629565b9050808382526020820190506020840283018581111561104b5761104a61072f565b5b835b8181101561109257803567ffffffffffffffff8111156110705761106f610649565b5b80860161107d8982610fa9565b8552602085019450505060208101905061104d565b5050509392505050565b600082601f8301126110b1576110b0610649565b5b81356110c1848260208601611015565b91505092915050565b6000604082840312156110e0576110df6105b3565b5b6110ea6040610629565b905060006110fa84828501610f68565b600083015250602082013567ffffffffffffffff81111561111e5761111d610644565b5b61112a8482850161109c565b60208301525092915050565b6000806040838503121561114d5761114c610573565b5b600061115b8582860161059e565b925050602083013567ffffffffffffffff81111561117c5761117b610578565b5b611188858286016110ca565b9150509250929050565b6000602082840312156111a8576111a7610573565b5b60006111b68482850161059e565b91505092915050565b600067ffffffffffffffff8211156111da576111d96105c9565b5b602082029050602081019050919050565b60006111fe6111f9846111bf565b610629565b905080838252602082019050602084028301858111156112215761122061072f565b5b835b8181101561124a5780611236888261059e565b845260208401935050602081019050611223565b5050509392505050565b600082601f83011261126957611268610649565b5b81356112798482602086016111eb565b91505092915050565b600080600080600060a0868803121561129e5761129d610573565b5b600086013567ffffffffffffffff8111156112bc576112bb610578565b5b6112c888828901610821565b955050602086013567ffffffffffffffff8111156112e9576112e8610578565b5b6112f5888289016110ca565b945050604086013567ffffffffffffffff81111561131657611315610578565b5b61132288828901611254565b935050606061133388828901610992565b9250506080611344888289016109f7565b9150509295509295909350565b60006020820190506113666000830184610df3565b92915050565b60008060008060008060c0878903121561138957611388610573565b5b600061139789828a0161059e565b965050602087013567ffffffffffffffff8111156113b8576113b7610578565b5b6113c489828a01610821565b955050604087013567ffffffffffffffff8111156113e5576113e4610578565b5b6113f189828a016110ca565b945050606087013567ffffffffffffffff81111561141257611411610578565b5b61141e89828a01611254565b935050608061142f89828a01610992565b92505060a061144089828a016109f7565b9150509295509295509295565b61145681610e57565b811461146157600080fd5b50565b6000813590506114738161144d565b92915050565b600067ffffffffffffffff821115611494576114936105c9565b5b602082029050602081019050919050565b60006114b86114b384611479565b610629565b905080838252602082019050602084028301858111156114db576114da61072f565b5b835b8181101561152257803567ffffffffffffffff811115611500576114ff610649565b5b80860161150d8982611254565b855260208501945050506020810190506114dd565b5050509392505050565b600082601f83011261154157611540610649565b5b81356115518482602086016114a5565b91505092915050565b600067ffffffffffffffff821115611575576115746105c9565b5b61157e826105b8565b9050602081019050919050565b600061159e6115998461155a565b610629565b9050828152602081018484840111156115ba576115b961064e565b5b6115c5848285610684565b509392505050565b600082601f8301126115e2576115e1610649565b5b81356115f284826020860161158b565b91505092915050565b60008060008060008060008060008060006101608c8e03121561162157611620610573565b5b600061162f8e828f0161059e565b9b505060206116408e828f01611464565b9a505060408c013567ffffffffffffffff81111561166157611660610578565b5b61166d8e828f016106d5565b99505060608c013567ffffffffffffffff81111561168e5761168d610578565b5b61169a8e828f016107bb565b98505060808c013567ffffffffffffffff8111156116bb576116ba610578565b5b6116c78e828f016106d5565b97505060a08c013567ffffffffffffffff8111156116e8576116e7610578565b5b6116f48e828f0161152c565b96505060c06117058e828f0161059e565b95505060e08c013567ffffffffffffffff81111561172657611725610578565b5b6117328e828f016107bb565b9450506101008c013567ffffffffffffffff81111561175457611753610578565b5b6117608e828f016115cd565b9350506101206117728e828f01611464565b9250506101408c013567ffffffffffffffff81111561179457611793610578565b5b6117a08e828f016106d5565b9150509295989b509295989b9093969950565b6000602082840312156117c9576117c8610573565b5b60006117d784828501610992565b9150509291505056fea26469706673582212209bb3d3dfa2683ac438801abc7512afd60ecf4b9b5ce8eda7d8cea34552605ea764736f6c63430008180033",
  "linkReferences": {},
  "deployedLinkReferences": {}
}